{
    "_format": "hh-sol-artifact-1",
    "contractName": "VotingSystem",
    "sourceName": "contracts/VotingSystem.sol",
    "abi": [
        {
            "inputs": [],
            "stateMutability": "nonpayable",
            "type": "constructor"
        },
        {
            "inputs": [],
            "name": "candidateAVotes",
            "outputs": [
                {
                    "internalType": "uint256",
                    "name": "",
                    "type": "uint256"
                }
            ],
            "stateMutability": "view",
            "type": "function"
        },
        {
            "inputs": [],
            "name": "candidateBVotes",
            "outputs": [
                {
                    "internalType": "uint256",
                    "name": "",
                    "type": "uint256"
                }
            ],
            "stateMutability": "view",
            "type": "function"
        },
        {
            "inputs": [],
            "name": "getCandidateAVotes",
            "outputs": [
                {
                    "internalType": "uint256",
                    "name": "",
                    "type": "uint256"
                }
            ],
            "stateMutability": "view",
            "type": "function"
        },
        {
            "inputs": [],
            "name": "getCandidateBVotes",
            "outputs": [
                {
                    "internalType": "uint256",
                    "name": "",
                    "type": "uint256"
                }
            ],
            "stateMutability": "view",
            "type": "function"
        },
        {
            "inputs": [],
            "name": "owner",
            "outputs": [
                {
                    "internalType": "address",
                    "name": "",
                    "type": "address"
                }
            ],
            "stateMutability": "view",
            "type": "function"
        },
        {
            "inputs": [],
            "name": "voteForCandidateA",
            "outputs": [],
            "stateMutability": "nonpayable",
            "type": "function"
        },
        {
            "inputs": [],
            "name": "voteForCandidateB",
            "outputs": [],
            "stateMutability": "nonpayable",
            "type": "function"
        }
    ],
    "bytecode": "0x608060405234801561001057600080fd5b50336000806101000a81548173ffffffffffffffffffffffffffffffffffffffff021916908373ffffffffffffffffffffffffffffffffffffffff16021790555060006001819055506000600281905550610443806100706000396000f3fe608060405234801561001057600080fd5b506004361061007d5760003560e01c8063a60891211161005b578063a6089121146100b4578063ad894252146100d2578063b702a415146100f0578063c16a38ad1461010e5761007d565b80634cd74b5f14610082578063701bdb7f1461008c5780638da5cb5b14610096575b600080fd5b61008a61012c565b005b6100946101b7565b005b61009e610243565b6040516100ab91906102e5565b60405180910390f35b6100bc610267565b6040516100c99190610320565b60405180910390f35b6100da610271565b6040516100e79190610320565b60405180910390f35b6100f8610277565b6040516101059190610320565b60405180910390f35b61011661027d565b6040516101239190610320565b60405180910390f35b600073ffffffffffffffffffffffffffffffffffffffff163373ffffffffffffffffffffffffffffffffffffffff16141561019c576040517f08c379a000000000000000000000000000000000000000000000000000000000815260040161019390610300565b60405180910390fd5b60018060008282546101ae919061034c565b92505081905550565b600073ffffffffffffffffffffffffffffffffffffffff163373ffffffffffffffffffffffffffffffffffffffff161415610227576040517f08c379a000000000000000000000000000000000000000000000000000000000815260040161021e90610300565b60405180910390fd5b60016002600082825461023a919061034c565b92505081905550565b60008054906101000a900473ffffffffffffffffffffffffffffffffffffffff1681565b6000600254905090565b60025481565b60015481565b6000600154905090565b610290816103a2565b82525050565b60006102a360108361033b565b91507f496e76616c696420616464726573732e000000000000000000000000000000006000830152602082019050919050565b6102df816103d4565b82525050565b60006020820190506102fa6000830184610287565b92915050565b6000602082019050818103600083015261031981610296565b9050919050565b600060208201905061033560008301846102d6565b92915050565b600082825260208201905092915050565b6000610357826103d4565b9150610362836103d4565b9250827fffffffffffffffffffffffffffffffffffffffffffffffffffffffffffffffff03821115610397576103966103de565b5b828201905092915050565b60006103ad826103b4565b9050919050565b600073ffffffffffffffffffffffffffffffffffffffff82169050919050565b6000819050919050565b7f4e487b7100000000000000000000000000000000000000000000000000000000600052601160045260246000fdfea26469706673582212202a8a245e96a77cdd182729d7c9cddc6da4c89e0767b7b15aa735b80eda4028af64736f6c63430008000033",
    "linkReferences": {},
    "deployedLinkReferences": {}
}